:0300000002095999
:0C095900787FE4F6D8FD7581190209A032
:100800005343523A0020202047414D45204F564542
:1008100052202000202020594F552057494E21209A
:1008200020200007FE07FF07FC03F00FF03FF07FDA
:10083000E0FFE07FF03FE01FC00F800D8009000B5C
:10084000000300018001800180318C799E7DBE3FD4
:10085000FC0FF003C003C003C003C003C003C00308
:10086000C003C000000000000003801FE07FF8FF0D
:10087000FC3FE00F800300000000000000000000CB
:10088000000000000001801188099007E03FFC3F54
:10089000FC3FFC3FFC07E00990118801800000004C
:1008A000000000000001E007F00F801F001E001E86
:1008B000001E001F000F8007F001E0000000000094
:0308C00000000035
:100CD900020D000002090064010826020B00070149
:050CE9001000010F00E6
:100BD900438901D28C120C09120C7E120CEF7F365C
:100BE900120D10120CC17F30120D10120D001208D7
:100BF900C3120AE11209E5AF0AAE09120C3A80EBF9
:070C33007F30120D107F0A53
:100C3A00E4FDFCC3ED9FEC9E5015E4FBFA0BBB00F0
:0F0C4A00010AEB64784A70F50DBD00010C80E4DF
:010C59002278
:060D4800E4FF0FBF0AFCEE
:010D4E002282
:080D4000D2A2120D48C2A2224A
:0C0D1000C2A0C2A18FB0120D40020D481D
:0C0D1C00D2A0C2A18FB0120D40020D4801
:100C0900D2A3D2A57F327E00120C3A120C33120CF9
:100C1900337F0C120C357F01120C357F06120C350F
:0A0C29007F36120D107F0A020C3A0C
:100C5A00AE07EDC39420ED500B4480FF120D10EE49
:100C6A004480800B24E04480FF120D10EE4488FF7C
:040C7A00120D102225
:100C7E007F36120D10E4FCAD04E4FF120C5AE4FEB4
:100C8E00E4FF120D1C0EBE10F70CBC40EA7F3002C2
:020C9E000D1037
:100CEF007F30120D107F01120D107F057E00020C58
:010CFF003ABA
:080B93008F118A128B13A905D2
:100B9B00E4FCE92CFDAF11120C5A851382851283EC
:100BAB0075F002EC120AD5E493FF120D1CEC75F0F4
:100BBB0002A42401FFE435F0FEE5132FF582E512C4
:0D0BCB003EF583E493FF120D1C0CBC10C519
:010BD80022FA
:040CA000AC07AA05EE
:100CA400E4F9E9C39B5015AF04EA29FD120C5AE498
:0C0CB400FF120D1CE4FF120D1C0980E66D
:010CC0002211
:100CC100E4FCAF047D36120C5A7FFF120D1C7FFF2E
:070CD100120D1C0CBC08EB26
:010CD80022F9
:060B46007BFF7D027F022F
:060B4C008B178A188919BD
:100B5200BF01047E808010BF02047E908009BF0323
:100B6200047E8880027E987F30120D10EE2DFF12D7
:100B72000D10AB17AA18A919120A6760130519E517
:100B8200197002051814F9120A67FF120D1C80E28F
:010B92002240
:1009E500AE0DAF0E7C277D10120A80EF2430F51175
:1009F500AE0DAF0E7C037DE8120A807C007D0A12E5
:100A05000A80ED2430F512AE0DAF0E7C007D641228
:100A15000A807C007D0A120A80ED2430F513AE0DA4
:100A2500AF0E7C007D0A120A807C007D0A120A80C6
:100A3500ED2430F514AE0DAF0E7C007D0A120A8050
:100A4500ED2430F515E4F5167BFF7A0879007D0372
:100A55007F01120B4C7B007A0079117D057F010225
:020A65000B4C38
:100D00007580FFC28220850475081222750826228C
:1008C300E50C150C7002150BC3E50B648094805086
:1008D30065750B00750C07E58A5401F510740A253C
:1008E3000EF50EE4350DF50DFEAF0E7C007D6412A2
:1008F3000A80ED4C7017D3E50A940AE50994004089
:100903000C74FB250AF50A74FF3509F509AE0DAF22
:100913000E7C007D1E120A80ED4C700CE50F7004F6
:100923007F0180027F008F0FC3E50E94E8E50D94ED
:10093300034003120D34E50C6401450B7017E510F9
:100943007009E508C3941C400C8007E508C3941C98
:060953005003120D2822E2
:100AE1007F36120D107B247D127F01120CA0E50CC4
:100AF10004FF7B227D14120CA0E50C6407450B70EA
:100B0100067D14FF120CA07A087B23AD087F011229
:100B11000B93E510AF0C70087A087B437D268006A5
:100B21007A087B637D14120B93E50F70087A087BBA
:100B3100837D0480077A087BA37D04E4FF120B9375
:050B41007F30020D10E1
:0C0D2800120CEF7A087905120B4680FED1
:0C0D3400120CEF7A087914120B4680FEB6
:10096500020BD9E493A3F8E493A34003F68001F2C4
:1009750008DFF48029E493A3F85407240CC8C33393
:10098500C4540F4420C8834004F456800146F6DF62
:10099500E4800B0102040810204080900CD9E47E0D
:1009A500019360BCA3FF543F30E509541FFEE49357
:1009B500A360010ECF54C025E060A840B8E493A31E
:1009C500FAE493A3F8E493A3C8C582C8CAC583CA49
:1009D500F0A3C8C582C8CAC583CADFE9DEE780BE01
:010CEE000005
:100A6700BB010689828A83E0225002E722BBFE028D
:090A7700E32289828A83E49322C0
:100A8000BC000BBE0029EF8DF084FFADF022E4CC5A
:100A9000F875F008EF2FFFEE33FEEC33FCEE9DEC23
:100AA000984005FCEE9DFE0FD5F0E9E4CEFD22ED69
:100AB000F8F5F0EE8420D21CFEADF075F008EF2FB3
:100AC000FFED33FD4007985006D5F0F222C398FDA4
:050AD0000FD5F0EA2241
:0C0AD500A42582F582E5F03583F583222C
:00000001FF
