:10000000020974E4FD7F8012026EE4F540E5407061
:1000100009E53370057D01FF8037E540B5380FE411
:10002000B5370BE53FB401067D017F3E8023E540F7
:10003000B40F0AE53D70067D017F2A8014E540B4C7
:100040000F0BE53DB401067D017F2980047D017F12
:100050002012026E0540E540C3941040B0E4FD7FDD
:10006000C012026EE4F540E540700BE533B40106C2
:100070007D01E4FF8017E540B5380EE4B5370AE5A9
:100080003F70067D017F2380047D017F5F12026E39
:100090000540E540C3941040CE227F147E0012023A
:1000A0004AC293E590540F4430F5901202917F05B7
:1000B0007E0012024A1202917F017E0012024A1251
:1000C0000291E590540F4420F590120291E4FD7FD7
:1000D0002812026EE4FD7F0C12026EE4FD7F061210
:1000E000026E12026A7F057E0012024A02022ABCD8
:1000F000000BBE0029EF8DF084FFADF022E4CCF8B8
:1001000075F008EF2FFFEE33FEEC33FCEE9DEC981C
:100110004005FCEE9DFE0FD5F0E9E4CEFD22EDF8A2
:10012000F5F0EE8420D21CFEADF075F008EF2FFF45
:10013000ED33FD4007985006D5F0F222C398FD0F2D
:10014000D5F0EA2212026A7F0A7E0012024AE4FD1A
:100150007F8012026E7D017F4712026E7D017F411A
:1001600012026E7D017F4D12026E7D017F451202EB
:100170006E7D017F2012026E7D017F4F12026E7D27
:10018000017F5612026E7D017F4512026E7D017F56
:100190005212026E80FE02390000023400C80133A0
:1001A00001010800013E000237000F013F00202A34
:1001B0000900010000000100000000000100010032
:1001C000010000000000010000000000000001002C
:1001D0000100000001000000000001023B001401CA
:1001E0003D000136070012026A7F0A7E0012024AB1
:1001F000E4FD7F8012026E7D017F5912026E7D0147
:100200007F4F12026E7D017F5512026E7D017F20AD
:1002100012026E7D017F5712026E7D017F4912022C
:100220006E7D017F4E12026E80FEE4FD7F40120261
:100230006EE4F540E5409002C793FF7D0112026E27
:100240000540E540C3940840EB22E4FDFCC3ED9F6C
:10025000EC9E5015E4FBFA0BBB00010AEB64784AF4
:1002600070F50DBD00010C80E422E4FD7F018F419B
:10027000ED24FF9293E541120287E541C412028703
:100280007F027E0002024A54F0FFE590540F4FF5C2
:1002900090D2927F017E0012024AC2922212009AEC
:1002A0001202B2120800120003AF35AE3412024A35
:1002B00080EE7580FFC28120850CE5087008750806
:0F02C00001753E04F5332200070617171C1E14A4
:10080000E5086011E53ED394004004153E8006E4FF
:10081000F508753301E538153870021537E53C15D4
:100820003C7002153BC3E53B648094805006753BE9
:1008300000753C14E53845377018E53F7008E5331E
:10084000B40103120144E53FB40107E5337003121C
:100850000144C3E5376480948040030208DC7537A7
:100860000075380F740A253AF53AE43539F539E55B
:100870003AB4E808E539B403031201E6E53C25E0A3
:100880002409F808E6F53FD3E53A9400E5399400E9
:100890004026AE39AF3A7C007D321200EFED4C704D
:1008A00017D3E5359414E5349400400C74EC2535E9
:1008B000F53574FF3534F534D3E53A9400E53994D1
:1008C000004019AE39AF3A7C007D641200EFED4C68
:0D08D000700AE53D7F0070027F018F3D2220
:10097400787FE4F6D8FD7581410209BB02029DE44B
:1009840093A3F8E493A34003F68001F208DFF48014
:1009940029E493A3F85407240CC8C333C4540F4464
:1009A40020C8834004F456800146F6DFE4800B013E
:1009B40002040810204080900196E47E019360BCFC
:1009C400A3FF543F30E509541FFEE493A360010ED6
:1009D400CF54C025E060A840B8E493A3FAE493A3FD
:1009E400F8E493A3C8C582C8CAC583CAF0A3C8C51E
:0C09F40082C8CAC583CADFE9DEE780BE06
:00000001FF
