:100000000209ED1200F27F011201127BFF7A0179E1
:1000100066E4FDFF1200D07FC0120112E4F50C125D
:1000200008007408250CF8A6077F2A12012B050C7E
:10003000E50CC3940440E87FC0120112E508B43116
:1000400017E509B43212E50AB4330DE50BB43408F0
:100050007BFF7A01797480067BFF7A017981120037
:10006000AB7F887E1312008B809CC291D2927F015D
:100070007E0012008BC2920F12008BE9C454F0FF75
:10008000E590540F4FF590D2927F01E4FDFCC3ED53
:100090009FEC9E5015E4FBFA0BBB00010AEB647069
:1000A0004A70F50DBD00010C80E4228B118A128983
:1000B00013AB11AA12A91312014460130513E5131F
:1000C0007002051214F9120144FF12012B80E22282
:1000D0008D0D8B0E8A0F8910EF7006E50D24808040
:1000E00004E50D24C0FF120112AB0EAA0FA91002E5
:1000F00000AB7F147E0012008B7F021201127F285A
:100100001201127F0C1201127F061201127F0102EE
:100110000112A907E954F0FFE590540F4FF590C282
:100120009312006AC2927F0502008BA907E954F07E
:10013000FFE590540F4FF590D29312006AC2927F60
:100140000502008BBB010689828A83E0225002E708
:1001500022BBFE02E32289828A83E49322E5805453
:1001600070FFBF70F8224469676974652073656E1B
:1001700068613A00434F4652452041424552544F30
:100180000053454E484120494E434F525245544139
:01019000006E
:100800007580FEE58020E60612015D7F2A22E580E4
:1008100020E50612015D7F3022E58020E40612010A
:100820005D7F23227580FDE58020E60612015D7F55
:100830003722E58020E50612015D7F3822E5802021
:10084000E40612015D7F39227580FBE58020E60613
:1008500012015D7F3422E58020E50612015D7F35BF
:1008600022E58020E40612015D7F36227580F7E5DF
:100870008020E60612015D7F3122E58020E5061228
:10088000015D7F3222E58030E40302080012015D41
:030890007F332291
:0C09ED00787FE4F6D8FD7581130200034A
:00000001FF
