:100000000209238F1BE4FBEBC4540F25E0240FF8F7
:10001000E6FE08E6F5828E83E51B2B540FC3940899
:100020007F0050027F01A907AD03E4FF120329E41A
:10003000FAE9601CE5822401FFE43583FEEA7C00D6
:10004000B5070DECB50609E4FF1203D17F0F80263A
:10005000E9601CE5822406FFE43583FEEA7C00B5F6
:10006000070DECB506097FF01203D1E4FF8007E429
:10007000FF1203D1E4FF1203D10ABA08B40BEB64F8
:1000800040708422AE0CAF0D7C277D1012011BEF57
:100090002430F51BAE0CAF0D7C037DE812011B7CF8
:1000A000007D0A12011BED2430F51CAE0CAF0D7C57
:1000B000007D6412011B7C007D0A12011BED2430BF
:1000C000F51DAE0CAF0D7C007D0A12011B7C007D7E
:1000D0000A12011BED2430F51EAE0CAF0D7C007D25
:1000E0000A12011BED2430F51FE4F5207A0379ECA8
:1000F0007F011201E27B007A00791B7D047F0102FF
:1001000001E6BB010689828A83E0225002E722BB16
:10011000FE02E32289828A83E49322BC000BBE00A4
:1001200029EF8DF084FFADF022E4CCF875F008EFF4
:100130002FFFEE33FEEC33FCEE9DEC984005FCEE19
:100140009DFE0FD5F0E9E4CEFD22EDF8F5F0EE844A
:1001500020D21CFEADF075F008EF2FFFED33FD400F
:1001600007985006D5F0F222C398FD0FD5F0EA2289
:10017000A42582F582E5F03583F583228C1B8D1C46
:100180008A1D8B1EA907E4FCEC7E00251CF520EEE1
:10019000351BF51FC3648094804042E5209440E500
:1001A0001F648094805036AF01AD20120329851E54
:1001B00082851D8375F002EC120170E493FF120337
:1001C000D1EC75F002A42401FFE435F0FEE51E2F0A
:1001D000F582E51D3EF583E493FF1203D10CBC10BC
:1001E000A7227BFF7D018B218A228923BF01047E08
:1001F00080800EBF02047E9080077E98BF03027E3F
:10020000887F301203C5EE2DFF1203C5AB21AA2251
:10021000A92312010260130523E5237002052214AD
:10022000F9120102FF1203D180E2227F361203C5C8
:10023000AF0E120003D3E51A94F0E5196480947FA1
:100240004019E51A9440E51964809480500D7A04B1
:100250007B4EAD1AAC19AF1812017C7A047B2E7D4F
:100260002E7C00AF1712017C7F300203C57580FF22
:10027000C2822086167F0A7E00120309208609E5C5
:1002800017D39400400215173086FD2084167F0A8C
:100290007E00120309208409E517C3940750020564
:1002A000173084FD221203A67BFF7A0379FEE4FD5A
:1002B0007F011201E67BFF7A04790E7F031201E6CB
:1002C0007580FFC2832086F87F0F7E00120309200D
:1002D00086EE3086FD0203A6D2A3D2A57F327E0031
:1002E0001203091203021203027F0C1203047F019E
:1002F0001203047F061203047F361203C57F0A022D
:1003000003097F301203C57F0AE4FDFCC3ED9FECB7
:100310009E5015E4FBFA0BBB00010AEB64784A70AF
:10032000F50DBD00010C80E422AE07EDC39420ED75
:10033000500B4480FF1203C5EE4480800B24E04440
:1003400080FF1203C5EE4488FF1203C522020C0091
:1003500000020800280117030118030219FFF00129
:100360000E00080F0000000000000000020A00005C
:1003700000438901D28C1202D81203A61202A512E0
:10038000026D12080012022B120084AF09AE08128F
:10039000030980EB1203A67BFF7A04791F7D027F9D
:1003A000021201E680FE7F301203C57F011203C5F1
:1003B0007F057E000203091203A67A0379F37F0208
:1003C0001201E280FEC2A0C2A18FB01203DD0203BF
:1003D000E5D2A0C2A18FB01203DD0203E5D2A212C2
:1003E00003E5C2A222E4FF0FBF0AFC22204B4D2FDF
:1003F000483A002047414D45204F56455200205372
:10040000544F434B204341522047414D45005052E9
:1004100045535320423120544F20494E4954002027
:100420002020594F552057494E2120202000000000
:1004300007E00FF01FF83FFC3FFC3FFC1FF80FF0F8
:100440000FF01FF83FFC3FFC3FFC1FF80FF00000CF
:1004500007E00FF01FF83FFC3FFC3FFC1FF80FF0D8
:0E0460000FF01FF83FFC3FFC3FFC1FF80FF0B1
:100800007404251AF51AE43519F519E50E24045473
:100810000FF50E7059851315851416851113851261
:1008200014850F11851012C3E510950BE50A64803D
:10083000F8E50F648098500A0510E5107030050F38
:10084000802CD3E510950BE50A6480F8E50F6480F1
:1008500098400AE51015107015150F8011E58A757E
:10086000F00584E5F024FEF50BE434FFF50AD3E54A
:100870001A943FE51964809480404E7519FF751AEB
:10088000F0E58A540324022510F518740A250DF5A5
:100890000DE4350CF50CFEAF0D7C007D6412011BE0
:1008A000ED4C7017D3E509940AE5089400400C74E8
:1008B000FD2509F50974FF3508F508C3E50D94E831
:1008C000E50C94034003120394E51A2410FFE43569
:1008D00019FED3EF942EEE648094804014E51A94B0
:1008E0003EE519648094805008E517B5180312039B
:1008F000B7E5162402FFE43515FEAD177C00C3ED05
:100900009FEE6480F87480984015E5162405FFE496
:100910003515FED3ED9FEE6480F874809840031285
:1009200003B722787FE4F6D8FD75812302096A02B5
:100930000371E493A3F8E493A34003F68001F20863
:10094000DFF48029E493A3F85407240CC8C333C40C
:10095000540F4420C8834004F456800146F6DFE477
:10096000800B010204081020408090034DE47E01BA
:100970009360BCA3FF543F30E509541FFEE493A3EA
:1009800060010ECF54C025E060A840B8E493A3FAFC
:10099000E493A3F8E493A3C8C582C8CAC583CAF088
:0F09A000A3C8C582C8CAC583CADFE9DEE780BE27
:00000001FF
